:0704C6004C696768743A00FD
:0C025A0074FFF508F5091204CD120475BC
:100266001203A08E0A8F0B7B007A007908AD0BACC7
:100276000A12016DE4FF1201E78F267BFF7A0479EB
:10028600C67D017F0112037DE526FB7A007510030A
:070296007D077F011203FA4E
:02029D0080C718
:10044900EF1FAC0670011E4C600B007D027CC7DCFF
:05045900FEDDFC80EB5C
:01045E00227B
:10048900E4FDFCC3ED9FEC9E50070DBD00010C80FF
:01049900F270
:01049A00223F
:0804BE00030109080C04060209
:0304D200012700FF
:1003DD00E527BF010304800224075407F527E5270D
:0D03ED009004BE93F5907F147E0002044939
:06049B00C2A18F80D2A077
:0804A1007F027EEFDEFEDFFCAE
:0104A9002230
:0A04AA00C2A212049BC2A00204A12A
:1003BF00CFCDCFCECCCE1200427C007D0A120042B0
:0403CF00ED2430FFEA
:0A03D300D2A212049BC2A00204A1F2
:10045F00AE07BE0104ED148006BE0209ED243F4431
:06046F0080FF1204AA2226
:100475007F381204AA7F0C1204AA7F061204AA7FF1
:04048500010204AAC2
:0A04B400AC0312045FAF040203D38F
:06037D008B0C8A0D890EB5
:1003830012045FE4FDAB0CAA0DA90E8D82758300E8
:0C039300120003FF60061203D30D80E986
:01039F00223B
:0C034A007F0AEA24FFFDE434FFFC7E0083
:080356008E118F128C138D141F
:10035E007F017E00E4FBEBC39514E5136480F87413
:0E036E008098500AAC11AD121200300B80E8DE
:01037C00225E
:0403FA008A0E8B0FCD
:1003FE0012045FAA10EAD39400400D12034AAC0E09
:08040E00AD0F1203BF1A80EDCF
:0104160022C3
:10029F0012045FC3EA64809480400B7F2B1203D358
:1002AF008A1A8B1B800E7F2D1203D3C3E49BF51B81
:1002BF00E49AF51AAA19EAD39400400D12034AAC36
:0902CF001AAD1B1203BF1A80EDE9
:0102D8002203
:0402D9008A1E8B1FCF
:1002DD0012045FAA20EAD3940040297F1012034C28
:1002ED00AC1EAD1FCFCDCFCECCCE120042EF540FF2
:1002FD00FEC3940AEE5004243080022437FF12030B
:04030D00D31A80D1AE
:0103110022C9
:040312008A238B248B
:1003160012045FAA25EAD394004028EA24FFFDE4EC
:1003260034FFFC7F027E00120356AC23AD24CFCDF2
:10033600CFCECCCE120042EF54012430FF1203D3AD
:030346001A80D248
:010349002291
:0504CD00D2A5C2A62229
:0201E7008F0C7B
:1001E900E4F50EF50FC2A57F02FE120489C2A6D25C
:1001F900A7D2A67F027E00120489C2A6D2A7D2A6E0
:100209007F027E00120489C2A6E50C1392A7D2A62A
:100219007F027E00120489C2A6D2A7E4F50DE50F7C
:1002290025E0F50FE50E33F50ED2A67F027E00120A
:100239000489C2A630A703430F017F027E0012047E
:1002490089050DE50DC3940840D4D2A5AE0EAF0FB4
:010259002282
:1003A00020B00820B1057E007F022220B0057E002B
:0F03B0007F012220B104E4FEFF227EFF7FFF22A7
:10041700E4F5117F011203DD7F147E001204490504
:0804270011E511C3941840EB2C
:01042F0022AA
:10043000E4F511E4FF1203DD7F147E001204490588
:0804400011E511C3941840EB13
:010448002291
:10016D008B0C8A0D890E8C0F8D10E510B4FF0BE5ED
:10017D000FB4FF0674FFF5F0805CE5106402450FC7
:10018D00700BAB0CAA0DA90E75F0028049AB0CAA31
:10019D000DA90E120097FFAEF065107003EE650FFE
:1001AD006029EF64024E60237F057E00120449E54D
:1001BD00106401450F700820B005120417800CE57E
:1001CD0010450F700620B103120430AB0CAA0DA917
:0A01DD000EE50F8510F01200C2229B
:030000000200E11A
:0C00E100787FE4F6D8FD75812702012825
:10000300BB010CE58229F582E5833AF583E02250B2
:1000130006E92582F8E622BBFE06E92582F8E222FC
:0D002300E58229F582E5833AF583E4932216
:10003000EF8DF0A4A8F0CF8CF0A428CE8DF0A42EE4
:02004000FE229E
:10004200BC000BBE0029EF8DF084FFADF022E4CCA2
:10005200F875F008EF2FFFEE33FEEC33FCEE9DEC6B
:10006200984005FCEE9DFE0FD5F0E9E4CEFD22EDB1
:10007200F8F5F0EE8420D21CFEADF075F008EF2FFB
:10008200FFED33FD4007985006D5F0F222C398FDEC
:050092000FD5F0EA2289
:10009700BB010A89828A83E0F5F0A3E02250068734
:1000A700F009E71922BBFE07E3F5F009E3192289F6
:0B00B700828A83E493F5F07401932229
:1000C200BB010A89828A83F0E5F0A3F0225006F789
:0F00D20009A7F01922BBFE06F3E5F009F3192286
:1000ED0002025AE493A3F8E493A34003F68001F2CD
:1000FD0008DFF48029E493A3F85407240CC8C33314
:10010D00C4540F4420C8834004F456800146F6DFE2
:10011D00E4800B01020408102040809004D2E47E9C
:10012D00019360BCA3FF543F30E509541FFEE493D7
:10013D00A360010ECF54C025E060A840B8E493A39E
:10014D00FAE493A3F8E493A3C8C582C8CAC583CAC9
:10015D00F0A3C8C582C8CAC583CADFE9DEE780BE81
:0104D5000026
:00000001FF
