:100563004C696768743A006C7578005468726573F7
:020573003A004C
:0305B2000127809E
:0C01D50074FFF508F5091205B912054F7A
:1001E1001204478E0A8F0B751100751200751327C3
:1001F1007B007A007908AD0BAC0A12011CE4FF12F6
:1002010002F68F26E526D3952740047F018002E47C
:10021100FF1204B77BFF7A0579637D017F01120428
:1002210076E526FB7A007510037D077F011204D461
:100231007BFF7A05796A7D0A7F011204767BFF7A5A
:1002410005796E7D017F02120476E527FB7A007540
:1002510010037D077F021204D47BFF7A05796A7D42
:060261000A7F0212047680
:030267000201E1B0
:10052300EF1FAC0670011E4C600B007D027CC7DC24
:05053300FEDDFC80EB81
:0105380022A0
:10057500E4FDFCC3ED9FEC9E50070DBD00010C8012
:01058500F283
:010586002252
:0805AA00030109080C0406021C
:0305B5000128001A
:1004B700E528BF010304800224075407F528E5282F
:0D04C7009005AA93F5907F147E0002052396
:06058700C2A18F80D2A08A
:08058D007F027EEFDEFEDFFCC1
:010595002243
:0A059600C2A2120587C2A002058D63
:10049900CFCDCFCECCCE12007D7C007D0A12007D5F
:0404A900ED2430FF0F
:0A04AD00D2A2120587C2A002058D3D
:10053900AE07BE0104ED148006BE0209ED243F4456
:0605490080FF120596225E
:10054F007F381205967F0C1205967F061205967F4F
:04055F0001020596FA
:0A05A000AC03120539AF040204ADEC
:060476008B0C8A0D890EBB
:10047C00120539E4FDAB0CAA0DA90E8D8275830013
:0C048C0012001CFF60061204AD0D80E998
:010498002241
:0C0414007F0AEA24FFFDE434FFFC7E00B8
:080420008E118F128C138D1454
:100428007F017E00E4FBEBC39514E5136480F87448
:0E0438008098500AAC11AD1212006B0B80E8D8
:010446002293
:0404D4008A0E8B0FF2
:1004D800120539AA10EAD39400400D120414AC0E88
:0804E800AD0F1204991A80ED1A
:0104F00022E9
:10036900120539C3EA64809480400B7F2B1204ADD7
:100379008A1A8B1B800E7F2D1204ADC3E49BF51BDB
:10038900E49AF51AAA19EAD39400400D120414ACA0
:090399001AAD1B1204991A80ED43
:0103A2002238
:0403A3008A1E8B1F04
:1003A700120539AA20EAD3940040297F10120416B7
:1003B700AC1EAD1FCFCDCFCECCCE12007DEF540FEC
:1003C700FEC3940AEE5004243080022437FF12043F
:0403D700AD1A80D10A
:0103DB0022FF
:0403DC008A238B24C1
:1003E000120539AA25EAD394004028EA24FFFDE447
:1003F00034FFFC7F027E00120420AC23AD24CFCD5D
:10040000CFCECCCE12007DEF54012430FF1204ADCC
:030410001A80D27D
:0104130022C6
:0505B900D2A5C2A6223C
:0202F6008F0C6B
:1002F800E4F50EF50FC2A57F02FE120575C2A6D25F
:10030800A7D2A67F027E00120575C2A6D2A7D2A6E2
:100318007F027E00120575C2A6E50C1392A7D2A62D
:100328007F027E00120575C2A6D2A7E4F50DE50F7F
:1003380025E0F50FE50E33F50ED2A67F027E0012FA
:100348000575C2A630A703430F017F027E00120580
:1003580075050DE50DC3940840D4D2A5AE0EAF0FB8
:010368002272
:1004470020B00820B1057E007F022220B0057E0083
:100457007F012220B104E4FEFF2220B2057E007F47
:0F046700032220B3057E007F04227EFF7FFF2249
:1004F100E4F5147F011204B77F147E001205230571
:0805010014E514C3941840EB4B
:0105090022CF
:10050A00E4F514E4FF1204B77F147E0012052305F4
:08051A0014E514C3941840EB32
:0105220022B6
:10011C008B0C8A0D890E8C0F8D10E510B4FF0CE53D
:10012C000FB4FF0774FFF5F00201D1E5106402452E
:10013C000F700CAB0CAA0DA90E75F0020201D1AB1D
:10014C000CAA0DA90E1200D2FFAEF065107003EED2
:10015C00650F6066EF64024E60607F057E001205DD
:10016C0023E5106401450F700820B0051204F180DE
:10017C0049E510450F700820B10512050A803BE5D2
:10018C00106403450F701520B212AB11AA12A913FB
:10019C00120003C394FF50227401801BE510640409
:1001AC00450F701620B313AB11AA12A9131200033A
:1001BC00D39400400574FF120049AB0CAA0DA90E94
:0901CC00E50F8510F01200FD2280
:0300000002026A8F
:0C026A00787FE4F6D8FD7581280202B10F
:10000300BB010689828A83E0225002E722BBFE02FB
:09001300E32289828A83E493222E
:10001C00BB010CE58229F582E5833AF583E0225099
:10002C0006E92582F8E622BBFE06E92582F8E222E3
:0D003C00E58229F582E5833AF583E49322FD
:10004900BB010989828A83F8E028F022500327F747
:1000590022BBFE05F8E328F3228A838982F8E49318
:0200690028224B
:10006B00EF8DF0A4A8F0CF8CF0A428CE8DF0A42EA9
:02007B00FE2263
:10007D00BC000BBE0029EF8DF084FFADF022E4CC67
:10008D00F875F008EF2FFFEE33FEEC33FCEE9DEC30
:10009D00984005FCEE9DFE0FD5F0E9E4CEFD22ED76
:1000AD00F8F5F0EE8420D21CFEADF075F008EF2FC0
:1000BD00FFED33FD4007985006D5F0F222C398FDB1
:0500CD000FD5F0EA224E
:1000D200BB010A89828A83E0F5F0A3E022500687F9
:1000E200F009E71922BBFE07E3F5F009E3192289BB
:0B00F200828A83E493F5F074019322EE
:1000FD00BB010A89828A83F0E5F0A3F0225006F74E
:0F010D0009A7F01922BBFE06F3E5F009F319224A
:100276000201D5E493A3F8E493A34003F68001F2C8
:1002860008DFF48029E493A3F85407240CC8C33389
:10029600C4540F4420C8834004F456800146F6DF58
:1002A600E4800B01020408102040809005B2E47E31
:1002B600019360BCA3FF543F30E509541FFEE4934D
:1002C600A360010ECF54C025E060A840B8E493A314
:1002D600FAE493A3F8E493A3C8C582C8CAC583CA3F
:1002E600F0A3C8C582C8CAC583CADFE9DEE780BEF7
:0105B8000042
:00000001FF
