:1006C80053797374656D20537461727465640D0A8F
:1006D80000436F6D6D616E64733A0D0A0043202DFF
:1006E800204D6F746F7220436C6F636B776973650D
:1006F8000D0A0041202D204D6F746F7220436F75D5
:100708006E7465722D436C6F636B776973650D0A40
:100718000053202D204D6F746F722053746F700D2D
:020728000A00C5
:10049F0074FFF508F509F50AF50BF50CF50D120CBF
:1004AF007E120C09120BAEE4FFFE120A757BFF7A67
:1004BF000679C8120AF47BFF7A0679D9120AF47BFF
:1004CF00FF7A0679E5120AF47BFF7A0679FB120AA6
:1004DF00F47BFF7A077919120AF4120C835008AFD4
:1004EF005A12072A120C86120003AD07AC067B00C6
:1004FF007A0079081205DBE4FF1206558F3BE53BC6
:10050F00C394035003E4F53BAC3BE41201367BFB91
:10051F007AFA797A784012002612016A8E458F4650
:10052F001209E6AF46AE45120A468E0C8F0D7B00C0
:10053F007A00790A12085B7FC87E00120BDD809A61
:100BDD00EF1FAC0670011E4C600B007D027CC7DC64
:050BED00FEDDFC80EBC1
:010BF20022E0
:100C1D00E4FDFCC3ED9FEC9E50070DBD00010C8063
:010C2D00F2D4
:010C2E0022A3
:080C6600030109080C04060259
:030A170001590082
:100B5A00E559BF010304800224075407F559E559F2
:0D0B6A00900C6693F5907F147E00020BDD69
:100B9400EF6006D290C2918004C290D291ED6005BC
:0A0BA400D292C29322C292D2932291
:090C5D00C290C291C292C293221E
:060C2F00C2A18F80D2A0DB
:080C35007F027EEFDEFEDFFC12
:010C3D002294
:0A0C4900C2A2120C2FC2A0020C354B
:100B3C00CFCDCFCECCCE1203397C007D0A12033937
:040B4C00ED2430FF65
:0A0B5000D2A2120C2FC2A0020C3535
:100BF300AE07BE0104ED148006BE0209ED243F4496
:060C030080FF120C4922E3
:100C09007F38120C497F0C120C497F06120C497F60
:040C190001020C497F
:0A0C5300AC03120BF3AF04020B50C8
:060B19008B138A148915FC
:100B1F00120BF3E4FDAB13AA14A9158D8275830094
:0C0B2F001202FAFF6006120B500D80E964
:010B3B002297
:0C0981007F0AEA24FFFDE434FFFC7E0046
:08098D008E178F188C198D1ACA
:100995007F017E00E4FBEBC3951AE5196480F874CA
:0E09A5008098500AAC17AD181203270B80E89B
:0109B3002221
:040B77008A148B153C
:100B7B00120BF3AA16EAD39400400D120981AC14A0
:080B8B00AD15120B3C1A80EDC0
:010B9300223F
:1008D600120BF3C3EA64809480400B7F2B120B50FB
:1008E6008A4E8B4F800E7F2D120B50C3E49BF54F23
:1008F600E49AF54EAA4DEAD39400400D120981AC54
:090906004EAD4F120B3C1A80EDBE
:01090F0022C5
:040910008A1D8B1E93
:10091400120BF3AA1FEAD3940040297F1012098313
:10092400AC1DAD1ECFCDCFCECCCE120339EF540FBC
:10093400FEC3940AEE5004243080022437FF120BC5
:04094400501A80D1F4
:01094800228C
:040949008A528B53F0
:10094D00120BF3AA54EAD394004028EA24FFFDE4E5
:10095D0034FFFC7F027E0012098DAC52AD53CFCD1A
:10096D00CFCECCCE120339EF54012430FF120B50F1
:03097D001A80D20B
:010980002254
:050C7E00D2A5C2A62270
:020655008F0E06
:10065700E4F510F511C2A57F02FE120C1DC2A6D249
:10066700A7D2A67F027E00120C1DC2A6D2A7D2A6D1
:100677007F027E00120C1DC2A6E50E1392A7D2A61A
:100687007F027E00120C1DC2A6D2A7E4F50FE5116A
:1006970025E0F511E51033F510D2A67F027E001292
:1006A7000C1DC2A630A7034311017F027E00120C66
:1006B7001D050FE50FC3940840D4D2A5AE10AF11A6
:0106C7002210
:10089A00202020202020202020202020202020204E
:1008AA000043757272656E74204D6F64653A004D2F
:1008BA00414E55414C004155544F00000000000084
:0C08CA0000000000000000000000000022
:0C0A1A0001550001560101570001580071
:0A03E6008F218D228B238A248925A4
:1003F000E4F528782A7C00FD7BFF7A0879C5FE7F2A
:10040000111202BBAB23AA24A9258528827583007B
:100410001202FA6004052880EBE528D39526500DDA
:10042000AB23AA24A925AD22AF21020B19E528C3CD
:1004300095265004AF288002AF268F29E4F527E5E2
:1004400027C395295028E5272557FFE433FEAD281B
:100450007C00120339AB23AA24A9258D828C831238
:1004600002FAFF742A2527F8A607052780D1742AE7
:100470002529F8E4F6FB7A00792AAD22AF21120B88
:10048000190558E558C394024014E4F558E557247B
:0E04900001FFE433FEAD287C001203398D57C6
:01049E00223B
:1000030020B30820B5057E007F022220B304E4FE5E
:0F001300FF2220B5057E007F01227EFF7FFF22A6
:100ACC00E55670047F0180027F008F56E555701744
:100ADC00F513AF56120B5A7F147E00120BDD051363
:070AEC00E513C3941840EB71
:010AF30022E0
:100BC600E55570047F0180027F008F551207DAD247
:070BD60001E4F547F5482298
:1007DA007BFF7A08799A7D017F01120B197BFF7AD8
:1007EA0008799A7D017F02120B197BFF7A0879AB8F
:1007FA007D037F01120B19E5557BFF70087A087992
:10080A00B97D0580067A0879C07D067F02120B1928
:01081A0022BB
:1005DB008B0E8A0F89108C118D12E512B4FF0BE56F
:1005EB0011B4FF0674FFF5F0805CE512640245114F
:1005FB00700BAB0EAA0FA91075F0028049AB0EAAB7
:10060B000FA91012038EFFAEF065127003EE651189
:10061B006029EF64024E60237F057E00120BDDE53F
:10062B00124511700820B305120ACC800EE5126436
:10063B00014511700620B503120BC6AB0EAA0FA90C
:0A064B0010E5118512F01203B92228
:1009B4004C6F77004D656469756D00486967680020
:1009C4004C696768743A202020204C78202020202D
:1009D4000020202020202020202020202020202033
:0209E4002000F1
:100A2600C100C10102470000013B00024500000968
:0A0A36003CFF09B4FF09B8FF09BF37
:100AA100C3EF942CEE648094815007AB3CAA3DA91E
:100AB1003E22C3EF94BCEE648094825007AB3FAA00
:0B0AC10040A94122AB42AA43A94422F5
:06081B008F108C118D12FC
:10082100D200E4F513F514C3E5149512E5139511FF
:100831005025E4F515F516AF10120B5A0516E516FD
:1008410070020515C39408E515940040EA0514E506
:090851001470D4051380D0C2001C
:01085A00227B
:100A75008E108F117BFF7A0979C47D017F01120BDE
:100A850019751604AB11AA107D077F01120B777B30
:0C0A9500FF7A0979D57D017F02020B1960
:100A4600C3EF94BCEE6480948240057E007F012251
:100A5600C3EF942CEE64809481400FD3EF94BBEEE9
:0F0A6600648094825004E4FEFF227EFF7FFF2213
:1009E6008E0E8F0F30011B0548E54870020547C380
:1009F600940AE54794004018C201E4F547F5480219
:100A06000A75751604AB0FAA0E7D077F01120B77C8
:010A160022BD
:10085B008E0E8F0FE5556401703420003112038E1C
:10086B00650F7004E50E65F06024E50E850FF01240
:10087B0003B9E50F6401450E70077D0AFC7F01800B
:0F088B000AE50F450E70077D0AFCFF12081B22BD
:10078C004D6F746F723A20436C6F636B776973654E
:10079C000D0A004D6F746F723A20436F756E74655D
:1007AC00722D436C6F636B776973650D0A004D6F27
:1007BC00746F723A2053746F700D0A00556E6B6E25
:0E07CC006F776E20436F6D6D616E640D0A00D5
:050A4000C102015A0093
:100BAE0075985053890F438920758DFD758BFDD235
:080BBE008ED2ACD2AFC20222BC
:080C6E008F993099FDC2992213
:100AF4008B0F8A108911AB0FAA10A9111202E160A1
:100B0400130511E5117002051014F91202E1FF1228
:050B14000C6E80E222DE
:080C76003098FDC298AF9922ED
:030C8300A20222A8
:030C8600C2022285
:10072A00EF24BF602824EE60442410704BE4F50ED9
:10073A007F01120B5A7F147E00120BDD050EE50EA7
:10074A00C3941840EB7BFF7A07798C8031E4F50E6D
:10075A00E4FF120B5A7F147E00120BDD050EE50E24
:10076A00C3941840EB7BFF7A07799F8011120C5DC6
:10077A007BFF7A0779BA80067BFF7A0779C8120A63
:01078A00F47A
:01078B00224B
:03002300020C3E8E
:0B0C3E0030980785995AD202C2983204
:10002600EC4D6011E8497017ED33EC3304600DE4D4
:10003600FCFFFEFD22E933E8330470F80201D61214
:1000460001A158046009E4CC248150062850090215
:1000560001E02840030201DDC0E0EB4A7044B980AC
:1000660006D0E0FB0201CCEF4E701CBD8008EBFF12
:10007600EAFEE9FD80EBE98DF0A4FEE5F002010F52
:10008600E9CDF9EAFEEBFFEF89F0A4FCE5F0CE89B5
:10009600F0A42EFFE435F0CD89F0A42DFEE435F072
:1000A6008067EF4E7005BD80D780C3EF8BF0A4ACA0
:1000B600F0EE8BF0A42CFCE435F0F8EF8AF0A42CDB
:1000C600E5F038FCE433CB8DF0A42CFCE5F03BF8EE
:1000D600EE8AF0A42CFCE5F038F8E433CF89F0A4DE
:1000E6002CFCE5F038CF3400CE89F0A42FFFE5F0E4
:1000F6003EFEE433C98DF0A42EFEE5F039CD8AF03C
:10010600A42FFFE5F03EFEE43DFD33D0E0FB5007B3
:100116000BBB000F0201E0EC2CFCEF33FFEE33FECD
:06012600ED33FD0201B8FB
:10012C0075F020800E75F010800575F0087D007E4E
:10013C00007F003392D530D5031203D8EC33401036
:10014C00EF33FFEE33FEED33FDEC33FCD5F0ED2257
:0E015C00E5F0247EA2D513CC92E7CDCEFF2293
:10016A00EDD2E7CD33EC3392D524814006E4FFFE8D
:10017A00FDFC22FCE4CFCECDCC24E0501174FF80EC
:10018A00EDC3CC13CCCD13CDCE13CECF13CF047089
:07019A00F030D5DE0203D8AE
:1001A100E9D2E7C933E833F892D5EDD2E7CD33ECA4
:0701B10033FC5002B2D5221D
:1001B800EC30E7100FBF000C0EBE00080DBD0004A8
:1001C8000BEB6014A2D5EB13FCED92E7FD2274FF54
:1001D800FCFDFEFF22E480F8A2D574FF13FC7D80AD
:0301E800E480EFC1
:0300000002054FA7
:0C054F00787FE4F6D8FD75815A0205960D
:1001EB00E709F608DFFA8046E709F208DFFA803EF6
:1001FB0088828C83E709F0A3DFFA8032E309F608E3
:10020B00DFFA8078E309F208DFFA807088828C834A
:10021B00E309F0A3DFFA806489828A83E0A3F608FE
:10022B00DFFA805889828A83E0A3F208DFFA804CD8
:10023B0080D280FA80C680D4806980F280338010AF
:10024B0080A680EA809A80A880DA80E280CA803318
:10025B0089828A83ECFAE493A3C8C582C8CCC58390
:10026B00CCF0A3C8C582C8CCC583CCDFE9DEE78060
:10027B000D89828A83E493A3F608DFF9ECFAA9F0DF
:10028B00EDFB2289828A83ECFAE0A3C8C582C8CC35
:10029B00C583CCF0A3C8C582C8CCC583CCDFEADE4E
:1002AB00E880DB89828A83E493A3F208DFF980CCB0
:1002BB0088F0EF60010E4E60C388F0ED2402B404A9
:1002CB000050B9F582EB2402B4040050AF23234550
:0602DB00822390023B7338
:1002E100BB010689828A83E0225002E722BBFE021B
:0902F100E32289828A83E493224E
:1002FA00BB010CE58229F582E5833AF583E02250B9
:10030A0006E92582F8E622BBFE06E92582F8E22202
:0D031A00E58229F582E5833AF583E493221C
:10032700EF8DF0A4A8F0CF8CF0A428CE8DF0A42EEA
:02033700FE22A4
:10033900BC000BBE0029EF8DF084FFADF022E4CCA8
:10034900F875F008EF2FFFEE33FEEC33FCEE9DEC71
:10035900984005FCEE9DFE0FD5F0E9E4CEFD22EDB7
:10036900F8F5F0EE8420D21CFEADF075F008EF2F01
:10037900FFED33FD4007985006D5F0F222C398FDF2
:050389000FD5F0EA228F
:10038E00BB010A89828A83E0F5F0A3E0225006873A
:10039E00F009E71922BBFE07E3F5F009E3192289FC
:0B03AE00828A83E493F5F0740193222F
:1003B900BB010A89828A83F0E5F0A3F0225006F78F
:0F03C90009A7F01922BBFE06F3E5F009F319228C
:0E03D800C3E49FFFE49EFEE49DFDE49CFC2236
:10055B0002049FE493A3F8E493A34003F68001F213
:10056B0008DFF48029E493A3F85407240CC8C333A1
:10057B00C4540F4420C8834004F456800146F6DF70
:10058B00E4800B0102040810204080900A17E47EDF
:10059B00019360BCA3FF543F30E509541FFEE49365
:1005AB00A360010ECF54C025E060A840B8E493A32C
:1005BB00FAE493A3F8E493A3C8C582C8CAC583CA57
:1005CB00F0A3C8C582C8CAC583CADFE9DEE780BE0F
:010A450000B0
:00000001FF
